{
  "contractName": "KYCContract",
  "abi": [
    {
      "inputs": [],
      "stateMutability": "nonpayable",
      "type": "constructor"
    },
    {
      "inputs": [],
      "name": "owner",
      "outputs": [
        {
          "internalType": "address",
          "name": "",
          "type": "address"
        }
      ],
      "stateMutability": "view",
      "type": "function",
      "constant": true
    },
    {
      "inputs": [
        {
          "internalType": "address",
          "name": "",
          "type": "address"
        }
      ],
      "name": "users",
      "outputs": [
        {
          "internalType": "string",
          "name": "ipfsHash",
          "type": "string"
        },
        {
          "internalType": "uint256",
          "name": "age",
          "type": "uint256"
        },
        {
          "internalType": "bool",
          "name": "verified",
          "type": "bool"
        }
      ],
      "stateMutability": "view",
      "type": "function",
      "constant": true
    },
    {
      "inputs": [
        {
          "internalType": "address",
          "name": "_user",
          "type": "address"
        },
        {
          "internalType": "string",
          "name": "_ipfsHash",
          "type": "string"
        },
        {
          "internalType": "uint256",
          "name": "_age",
          "type": "uint256"
        }
      ],
      "name": "storeKYC",
      "outputs": [],
      "stateMutability": "nonpayable",
      "type": "function"
    },
    {
      "inputs": [
        {
          "internalType": "address",
          "name": "_user",
          "type": "address"
        }
      ],
      "name": "verifyAge",
      "outputs": [
        {
          "internalType": "bool",
          "name": "",
          "type": "bool"
        }
      ],
      "stateMutability": "view",
      "type": "function",
      "constant": true
    }
  ],
  "bytecode": "0x608060405234801561001057600080fd5b50600180546001600160a01b03191633179055610562806100326000396000f3fe608060405234801561001057600080fd5b506004361061004c5760003560e01c80638da5cb5b14610051578063a87430ba14610081578063b55a5f14146100a3578063db12c497146100e3575b600080fd5b600154610064906001600160a01b031681565b6040516001600160a01b0390911681526020015b60405180910390f35b61009461008f366004610282565b6100f8565b604051610078939291906102a4565b6100d36100b1366004610282565b6001600160a01b03166000908152602081905260409020600101546012111590565b6040519015158152602001610078565b6100f66100f1366004610318565b6101a6565b005b600060208190529081526040902080548190610113906103e3565b80601f016020809104026020016040519081016040528092919081815260200182805461013f906103e3565b801561018c5780601f106101615761010080835404028352916020019161018c565b820191906000526020600020905b81548152906001019060200180831161016f57829003601f168201915b50505050600183015460029093015491929160ff16905083565b6001546001600160a01b031633146101fd5760405162461bcd60e51b81526020600482015260166024820152754f6e6c79206f776e65722063616e20616464204b594360501b604482015260640160405180910390fd5b60408051606081018252838152602080820184905260008284018190526001600160a01b038716815290819052919091208151819061023c908261046c565b50602082015160018201556040909101516002909101805460ff1916911515919091179055505050565b80356001600160a01b038116811461027d57600080fd5b919050565b60006020828403121561029457600080fd5b61029d82610266565b9392505050565b606081526000845180606084015260005b818110156102d257602081880181015160808684010152016102b5565b506000608082850101526080601f19601f8301168401019150508360208301528215156040830152949350505050565b634e487b7160e01b600052604160045260246000fd5b60008060006060848603121561032d57600080fd5b61033684610266565b9250602084013567ffffffffffffffff8082111561035357600080fd5b818601915086601f83011261036757600080fd5b81358181111561037957610379610302565b604051601f8201601f19908116603f011681019083821181831017156103a1576103a1610302565b816040528281528960208487010111156103ba57600080fd5b826020860160208301376000602084830101528096505050505050604084013590509250925092565b600181811c908216806103f757607f821691505b60208210810361041757634e487b7160e01b600052602260045260246000fd5b50919050565b601f82111561046757600081815260208120601f850160051c810160208610156104445750805b601f850160051c820191505b8181101561046357828155600101610450565b5050505b505050565b815167ffffffffffffffff81111561048657610486610302565b61049a8161049484546103e3565b8461041d565b602080601f8311600181146104cf57600084156104b75750858301515b600019600386901b1c1916600185901b178555610463565b600085815260208120601f198616915b828110156104fe578886015182559484019460019091019084016104df565b508582101561051c5787850151600019600388901b60f8161c191681555b5050505050600190811b0190555056fea264697066735822122034f44106ed04533642fa0740f5896494feb78469c7da19e6fb26cc9e2f1511bb64736f6c63430008140033",
  "immutableReferences": {},
  "source": "// SPDX-License-Identifier: UNLICENSEDn\npragma solidity ^0.8.0;\n\ncontract KYCContract {\n    struct User {\n        string ipfsHash;\n        uint age;\n        bool verified;\n    }\n\n    mapping(address => User) public users;\n    address public owner;\n\n    constructor() {\n        owner = msg.sender;\n    }\n\n    // Store user KYC data (callable by owner)\n    function storeKYC(address _user, string memory _ipfsHash, uint _age) public {\n        require(msg.sender == owner, \"Only owner can add KYC\");\n        users[_user] = User(_ipfsHash, _age, false);\n    }\n\n    // Verify age \n    function verifyAge(address _user) public view returns (bool) {\n        return users[_user].age >= 18; // Returns true if age >= 18\n    }\n}\n",
  "sourcePath": "C:\\Users\\Joel\\Desktop\\Applied Cryptography lab\\AC part b\\Blockchain-Based-KYC-with-ZKP-and-IPFS\\FrontEnd\\contracts\\KYCContract.sol",
  "compiler": {
    "name": "solc",
    "version": "0.8.20+commit.a1b79de6.Emscripten.clang"
  },
  "schemaVersion": "3.4.16",
  "updatedAt": "2025-07-25T08:51:29.743Z",
  "networkType": "ethereum",
  "devdoc": {
    "kind": "dev",
    "methods": {},
    "version": 1
  },
  "userdoc": {
    "kind": "user",
    "methods": {},
    "version": 1
  }
}